{
    "_format": "hh-sol-artifact-1",
    "contractName": "Cards",
    "sourceName": "contracts/Cards.sol",
    "abi": [
        {
            "inputs": [],
            "name": "Cancelled",
            "type": "error"
        },
        {
            "inputs": [
                {
                    "internalType": "address",
                    "name": "beneficiary",
                    "type": "address"
                }
            ],
            "name": "InvalidBeneficiary",
            "type": "error"
        },
        {
            "inputs": [
                {
                    "internalType": "address",
                    "name": "beneficiary",
                    "type": "address"
                }
            ],
            "name": "NotTheBeneficiary",
            "type": "error"
        },
        {
            "inputs": [
                {
                    "internalType": "address",
                    "name": "creator",
                    "type": "address"
                }
            ],
            "name": "NotTheCreator",
            "type": "error"
        },
        {
            "inputs": [],
            "name": "Redeemed",
            "type": "error"
        },
        {
            "inputs": [],
            "name": "TransferFailed",
            "type": "error"
        },
        {
            "anonymous": false,
            "inputs": [
                {
                    "indexed": false,
                    "internalType": "bytes32",
                    "name": "card",
                    "type": "bytes32"
                }
            ],
            "name": "CancelledCard",
            "type": "event"
        },
        {
            "anonymous": false,
            "inputs": [
                {
                    "indexed": false,
                    "internalType": "bytes32",
                    "name": "card",
                    "type": "bytes32"
                }
            ],
            "name": "CreateCard",
            "type": "event"
        },
        {
            "anonymous": false,
            "inputs": [
                {
                    "indexed": false,
                    "internalType": "bytes32",
                    "name": "card",
                    "type": "bytes32"
                }
            ],
            "name": "RedeemedCard",
            "type": "event"
        },
        {
            "inputs": [
                {
                    "internalType": "bytes32",
                    "name": "number",
                    "type": "bytes32"
                }
            ],
            "name": "cancelCard",
            "outputs": [],
            "stateMutability": "payable",
            "type": "function"
        },
        {
            "inputs": [
                {
                    "internalType": "bytes32",
                    "name": "number",
                    "type": "bytes32"
                },
                {
                    "internalType": "address payable",
                    "name": "beneficiary",
                    "type": "address"
                },
                {
                    "internalType": "string",
                    "name": "message",
                    "type": "string"
                }
            ],
            "name": "createCard",
            "outputs": [],
            "stateMutability": "payable",
            "type": "function"
        },
        {
            "inputs": [
                {
                    "internalType": "address",
                    "name": "beneficiary",
                    "type": "address"
                }
            ],
            "name": "getAvailableCards",
            "outputs": [
                {
                    "internalType": "bytes32[]",
                    "name": "",
                    "type": "bytes32[]"
                }
            ],
            "stateMutability": "view",
            "type": "function"
        },
        {
            "inputs": [
                {
                    "internalType": "bytes32",
                    "name": "number",
                    "type": "bytes32"
                }
            ],
            "name": "getCard",
            "outputs": [
                {
                    "components": [
                        {
                            "internalType": "bytes32",
                            "name": "number",
                            "type": "bytes32"
                        },
                        {
                            "internalType": "address payable",
                            "name": "creator",
                            "type": "address"
                        },
                        {
                            "internalType": "address payable",
                            "name": "beneficiary",
                            "type": "address"
                        },
                        {
                            "internalType": "uint256",
                            "name": "amount",
                            "type": "uint256"
                        },
                        {
                            "internalType": "string",
                            "name": "message",
                            "type": "string"
                        },
                        {
                            "internalType": "uint256",
                            "name": "redeemedAt",
                            "type": "uint256"
                        },
                        {
                            "internalType": "uint256",
                            "name": "cancelledAt",
                            "type": "uint256"
                        }
                    ],
                    "internalType": "struct Cards.GiftCard",
                    "name": "",
                    "type": "tuple"
                }
            ],
            "stateMutability": "view",
            "type": "function"
        },
        {
            "inputs": [],
            "name": "getCardsCount",
            "outputs": [
                {
                    "internalType": "uint256",
                    "name": "",
                    "type": "uint256"
                }
            ],
            "stateMutability": "view",
            "type": "function"
        },
        {
            "inputs": [
                {
                    "internalType": "address",
                    "name": "emitter",
                    "type": "address"
                }
            ],
            "name": "getEmittedCards",
            "outputs": [
                {
                    "internalType": "bytes32[]",
                    "name": "",
                    "type": "bytes32[]"
                }
            ],
            "stateMutability": "view",
            "type": "function"
        },
        {
            "inputs": [
                {
                    "internalType": "bytes32",
                    "name": "number",
                    "type": "bytes32"
                }
            ],
            "name": "redeemCard",
            "outputs": [],
            "stateMutability": "payable",
            "type": "function"
        }
    ],
    "bytecode": "0x608060405234801561001057600080fd5b5061143a806100206000396000f3fe6080604052600436106100705760003560e01c806362bd42db1161004e57806362bd42db146100d8578063a67850d614610115578063c1a68d4914610152578063d28e8e191461016e57610070565b80630962be9114610075578063221b5fad1461009157806343755a4e146100bc575b600080fd5b61008f600480360381019061008a9190610deb565b6101ab565b005b34801561009d57600080fd5b506100a661042c565b6040516100b39190610e31565b60405180910390f35b6100d660048036038101906100d19190610deb565b610435565b005b3480156100e457600080fd5b506100ff60048036038101906100fa9190610deb565b6106b6565b60405161010c9190610fe0565b60405180910390f35b34801561012157600080fd5b5061013c60048036038101906101379190611040565b610849565b604051610149919061111c565b60405180910390f35b61016c600480360381019061016791906111cf565b6108e0565b005b34801561017a57600080fd5b5061019560048036038101906101909190611040565b610c05565b6040516101a2919061111c565b60405180910390f35b8060006001600083815260200190815260200160002060050154146101fc576040517fb8cac30000000000000000000000000000000000000000000000000000000000815260040160405180910390fd5b600060016000838152602001908152602001600020600601541461024c576040517f63b9588400000000000000000000000000000000000000000000000000000000815260040160405180910390fd5b60006001600084815260200190815260200160002090504281600501819055503373ffffffffffffffffffffffffffffffffffffffff168160020160009054906101000a900473ffffffffffffffffffffffffffffffffffffffff1673ffffffffffffffffffffffffffffffffffffffff1614610324578060020160009054906101000a900473ffffffffffffffffffffffffffffffffffffffff166040517f1304e43900000000000000000000000000000000000000000000000000000000815260040161031b91906112a2565b60405180910390fd5b60008160020160009054906101000a900473ffffffffffffffffffffffffffffffffffffffff1673ffffffffffffffffffffffffffffffffffffffff168260030154604051610372906112ee565b60006040518083038185875af1925050503d80600081146103af576040519150601f19603f3d011682016040523d82523d6000602084013e6103b4565b606091505b50509050806103ef576040517f90b8ec1800000000000000000000000000000000000000000000000000000000815260040160405180910390fd5b7f29a57fa0833a49170116f9060581a609494d3580c160420a3b22c58554cdfcb48460405161041e9190611312565b60405180910390a150505050565b60008054905090565b806000600160008381526020019081526020016000206005015414610486576040517fb8cac30000000000000000000000000000000000000000000000000000000000815260040160405180910390fd5b60006001600083815260200190815260200160002060060154146104d6576040517f63b9588400000000000000000000000000000000000000000000000000000000815260040160405180910390fd5b60006001600084815260200190815260200160002090504281600601819055503373ffffffffffffffffffffffffffffffffffffffff168160010160009054906101000a900473ffffffffffffffffffffffffffffffffffffffff1673ffffffffffffffffffffffffffffffffffffffff16146105ae578060010160009054906101000a900473ffffffffffffffffffffffffffffffffffffffff166040517f689289b70000000000000000000000000000000000000000000000000000000081526004016105a591906112a2565b60405180910390fd5b60008160010160009054906101000a900473ffffffffffffffffffffffffffffffffffffffff1673ffffffffffffffffffffffffffffffffffffffff1682600301546040516105fc906112ee565b60006040518083038185875af1925050503d8060008114610639576040519150601f19603f3d011682016040523d82523d6000602084013e61063e565b606091505b5050905080610679576040517f90b8ec1800000000000000000000000000000000000000000000000000000000815260040160405180910390fd5b7fe9e6daa14993e6d3e2008ff271c129fbea64308f874ddc36e26028c3e88d9b43846040516106a89190611312565b60405180910390a150505050565b6106be610c9c565b600160008381526020019081526020016000206040518060e0016040529081600082015481526020016001820160009054906101000a900473ffffffffffffffffffffffffffffffffffffffff1673ffffffffffffffffffffffffffffffffffffffff1673ffffffffffffffffffffffffffffffffffffffff1681526020016002820160009054906101000a900473ffffffffffffffffffffffffffffffffffffffff1673ffffffffffffffffffffffffffffffffffffffff1673ffffffffffffffffffffffffffffffffffffffff168152602001600382015481526020016004820180546107ac9061135c565b80601f01602080910402602001604051908101604052809291908181526020018280546107d89061135c565b80156108255780601f106107fa57610100808354040283529160200191610825565b820191906000526020600020905b81548152906001019060200180831161080857829003601f168201915b50505050508152602001600582015481526020016006820154815250509050919050565b6060600260008373ffffffffffffffffffffffffffffffffffffffff1673ffffffffffffffffffffffffffffffffffffffff1681526020019081526020016000208054806020026020016040519081016040528092919081815260200182805480156108d457602002820191906000526020600020905b8154815260200190600101908083116108c0575b50505050509050919050565b600073ffffffffffffffffffffffffffffffffffffffff168373ffffffffffffffffffffffffffffffffffffffff160361095157826040517f1a3b45fd00000000000000000000000000000000000000000000000000000000815260040161094891906112a2565b60405180910390fd5b60006040518060e001604052808681526020013373ffffffffffffffffffffffffffffffffffffffff1681526020018573ffffffffffffffffffffffffffffffffffffffff16815260200134815260200184848080601f016020809104026020016040519081016040528093929190818152602001838380828437600081840152601f19601f8201169050808301925050505050505081526020016000815260200160008152509050600080815480929190610a0c906113bc565b919050555080600160008781526020019081526020016000206000820151816000015560208201518160010160006101000a81548173ffffffffffffffffffffffffffffffffffffffff021916908373ffffffffffffffffffffffffffffffffffffffff16021790555060408201518160020160006101000a81548173ffffffffffffffffffffffffffffffffffffffff021916908373ffffffffffffffffffffffffffffffffffffffff160217905550606082015181600301556080820151816004019080519060200190610ae3929190610d08565b5060a0820151816005015560c08201518160060155905050600260003373ffffffffffffffffffffffffffffffffffffffff1673ffffffffffffffffffffffffffffffffffffffff168152602001908152602001600020859080600181540180825580915050600190039060005260206000200160009091909190915055600360008573ffffffffffffffffffffffffffffffffffffffff1673ffffffffffffffffffffffffffffffffffffffff1681526020019081526020016000208590806001815401808255809150506001900390600052602060002001600090919091909150557fa6b89e76f5d1db072befd505af4694d25063e737327c45f5c9abe2f3137cca6a85604051610bf69190611312565b60405180910390a15050505050565b6060600360008373ffffffffffffffffffffffffffffffffffffffff1673ffffffffffffffffffffffffffffffffffffffff168152602001908152602001600020805480602002602001604051908101604052809291908181526020018280548015610c9057602002820191906000526020600020905b815481526020019060010190808311610c7c575b50505050509050919050565b6040518060e0016040528060008019168152602001600073ffffffffffffffffffffffffffffffffffffffff168152602001600073ffffffffffffffffffffffffffffffffffffffff168152602001600081526020016060815260200160008152602001600081525090565b828054610d149061135c565b90600052602060002090601f016020900481019282610d365760008555610d7d565b82601f10610d4f57805160ff1916838001178555610d7d565b82800160010185558215610d7d579182015b82811115610d7c578251825591602001919060010190610d61565b5b509050610d8a9190610d8e565b5090565b5b80821115610da7576000816000905550600101610d8f565b5090565b600080fd5b600080fd5b6000819050919050565b610dc881610db5565b8114610dd357600080fd5b50565b600081359050610de581610dbf565b92915050565b600060208284031215610e0157610e00610dab565b5b6000610e0f84828501610dd6565b91505092915050565b6000819050919050565b610e2b81610e18565b82525050565b6000602082019050610e466000830184610e22565b92915050565b610e5581610db5565b82525050565b600073ffffffffffffffffffffffffffffffffffffffff82169050919050565b6000610e8682610e5b565b9050919050565b610e9681610e7b565b82525050565b610ea581610e18565b82525050565b600081519050919050565b600082825260208201905092915050565b60005b83811015610ee5578082015181840152602081019050610eca565b83811115610ef4576000848401525b50505050565b6000601f19601f8301169050919050565b6000610f1682610eab565b610f208185610eb6565b9350610f30818560208601610ec7565b610f3981610efa565b840191505092915050565b600060e083016000830151610f5c6000860182610e4c565b506020830151610f6f6020860182610e8d565b506040830151610f826040860182610e8d565b506060830151610f956060860182610e9c565b5060808301518482036080860152610fad8282610f0b565b91505060a0830151610fc260a0860182610e9c565b5060c0830151610fd560c0860182610e9c565b508091505092915050565b60006020820190508181036000830152610ffa8184610f44565b905092915050565b600061100d82610e5b565b9050919050565b61101d81611002565b811461102857600080fd5b50565b60008135905061103a81611014565b92915050565b60006020828403121561105657611055610dab565b5b60006110648482850161102b565b91505092915050565b600081519050919050565b600082825260208201905092915050565b6000819050602082019050919050565b60006110a58383610e4c565b60208301905092915050565b6000602082019050919050565b60006110c98261106d565b6110d38185611078565b93506110de83611089565b8060005b8381101561110f5781516110f68882611099565b9750611101836110b1565b9250506001810190506110e2565b5085935050505092915050565b6000602082019050818103600083015261113681846110be565b905092915050565b61114781610e7b565b811461115257600080fd5b50565b6000813590506111648161113e565b92915050565b600080fd5b600080fd5b600080fd5b60008083601f84011261118f5761118e61116a565b5b8235905067ffffffffffffffff8111156111ac576111ab61116f565b5b6020830191508360018202830111156111c8576111c7611174565b5b9250929050565b600080600080606085870312156111e9576111e8610dab565b5b60006111f787828801610dd6565b945050602061120887828801611155565b935050604085013567ffffffffffffffff81111561122957611228610db0565b5b61123587828801611179565b925092505092959194509250565b6000819050919050565b600061126861126361125e84610e5b565b611243565b610e5b565b9050919050565b600061127a8261124d565b9050919050565b600061128c8261126f565b9050919050565b61129c81611281565b82525050565b60006020820190506112b76000830184611293565b92915050565b600081905092915050565b50565b60006112d86000836112bd565b91506112e3826112c8565b600082019050919050565b60006112f9826112cb565b9150819050919050565b61130c81610db5565b82525050565b60006020820190506113276000830184611303565b92915050565b7f4e487b7100000000000000000000000000000000000000000000000000000000600052602260045260246000fd5b6000600282049050600182168061137457607f821691505b6020821081036113875761138661132d565b5b50919050565b7f4e487b7100000000000000000000000000000000000000000000000000000000600052601160045260246000fd5b60006113c782610e18565b91507fffffffffffffffffffffffffffffffffffffffffffffffffffffffffffffffff82036113f9576113f861138d565b5b60018201905091905056fea2646970667358221220c70f843d9dc73656e3e315e02a63902cfb84c51caf92b8a1f7c9646dd1b734a064736f6c634300080d0033",
    "linkReferences": {},
    "deployedLinkReferences": {}
}