{
    "_format": "hh-sol-artifact-1",
    "contractName": "Cards",
    "sourceName": "contracts/Cards.sol",
    "abi": [
        {
            "inputs": [
                {
                    "internalType": "address",
                    "name": "recipient",
                    "type": "address"
                }
            ],
            "name": "InvalidRecipient",
            "type": "error"
        },
        {
            "inputs": [
                {
                    "internalType": "address",
                    "name": "creator",
                    "type": "address"
                }
            ],
            "name": "NotTheCreator",
            "type": "error"
        },
        {
            "inputs": [
                {
                    "internalType": "address",
                    "name": "recipient",
                    "type": "address"
                }
            ],
            "name": "NotTheRecipient",
            "type": "error"
        },
        {
            "inputs": [],
            "name": "TransferFailed",
            "type": "error"
        },
        {
            "anonymous": false,
            "inputs": [
                {
                    "components": [
                        {
                            "internalType": "bytes32",
                            "name": "name",
                            "type": "bytes32"
                        },
                        {
                            "internalType": "address payable",
                            "name": "creator",
                            "type": "address"
                        },
                        {
                            "internalType": "address payable",
                            "name": "recipient",
                            "type": "address"
                        },
                        {
                            "internalType": "uint256",
                            "name": "amount",
                            "type": "uint256"
                        },
                        {
                            "internalType": "string",
                            "name": "message",
                            "type": "string"
                        }
                    ],
                    "indexed": false,
                    "internalType": "struct Cards.GiftCard",
                    "name": "card",
                    "type": "tuple"
                }
            ],
            "name": "CreateCard",
            "type": "event"
        },
        {
            "inputs": [
                {
                    "internalType": "address",
                    "name": "",
                    "type": "address"
                },
                {
                    "internalType": "uint256",
                    "name": "",
                    "type": "uint256"
                }
            ],
            "name": "availableCards",
            "outputs": [
                {
                    "internalType": "bytes32",
                    "name": "",
                    "type": "bytes32"
                }
            ],
            "stateMutability": "view",
            "type": "function"
        },
        {
            "inputs": [
                {
                    "internalType": "bytes32",
                    "name": "name",
                    "type": "bytes32"
                }
            ],
            "name": "cancelCard",
            "outputs": [],
            "stateMutability": "nonpayable",
            "type": "function"
        },
        {
            "inputs": [
                {
                    "internalType": "bytes32",
                    "name": "",
                    "type": "bytes32"
                }
            ],
            "name": "cards",
            "outputs": [
                {
                    "internalType": "bytes32",
                    "name": "name",
                    "type": "bytes32"
                },
                {
                    "internalType": "address payable",
                    "name": "creator",
                    "type": "address"
                },
                {
                    "internalType": "address payable",
                    "name": "recipient",
                    "type": "address"
                },
                {
                    "internalType": "uint256",
                    "name": "amount",
                    "type": "uint256"
                },
                {
                    "internalType": "string",
                    "name": "message",
                    "type": "string"
                }
            ],
            "stateMutability": "view",
            "type": "function"
        },
        {
            "inputs": [
                {
                    "internalType": "bytes32",
                    "name": "name",
                    "type": "bytes32"
                },
                {
                    "internalType": "address payable",
                    "name": "recipient",
                    "type": "address"
                },
                {
                    "internalType": "string",
                    "name": "message",
                    "type": "string"
                }
            ],
            "name": "createCard",
            "outputs": [],
            "stateMutability": "payable",
            "type": "function"
        },
        {
            "inputs": [
                {
                    "internalType": "address",
                    "name": "",
                    "type": "address"
                },
                {
                    "internalType": "uint256",
                    "name": "",
                    "type": "uint256"
                }
            ],
            "name": "emittedCards",
            "outputs": [
                {
                    "internalType": "bytes32",
                    "name": "",
                    "type": "bytes32"
                }
            ],
            "stateMutability": "view",
            "type": "function"
        },
        {
            "inputs": [
                {
                    "internalType": "bytes32",
                    "name": "name",
                    "type": "bytes32"
                }
            ],
            "name": "redeemCard",
            "outputs": [],
            "stateMutability": "nonpayable",
            "type": "function"
        }
    ],
    "bytecode": "0x608060405234801561001057600080fd5b506115e3806100206000396000f3fe6080604052600436106100555760003560e01c80630962be911461005a57806343755a4e146100835780635d766081146100ac578063707cd60c146100e9578063a12629241461012a578063c1a68d4914610167575b600080fd5b34801561006657600080fd5b50610081600480360381019061007c9190610f85565b610183565b005b34801561008f57600080fd5b506100aa60048036038101906100a59190610f85565b610580565b005b3480156100b857600080fd5b506100d360048036038101906100ce9190611046565b61097d565b6040516100e09190611095565b60405180910390f35b3480156100f557600080fd5b50610110600480360381019061010b9190610f85565b6109ae565b604051610121959493929190611179565b60405180910390f35b34801561013657600080fd5b50610151600480360381019061014c9190611046565b610aac565b60405161015e9190611095565b60405180910390f35b610181600480360381019061017c9190611264565b610add565b005b600080600083815260200190815260200160002090506000808381526020019081526020016000206000808201600090556001820160006101000a81549073ffffffffffffffffffffffffffffffffffffffff02191690556002820160006101000a81549073ffffffffffffffffffffffffffffffffffffffff0219169055600382016000905560048201600061021a9190610e62565b5050600160008260010160009054906101000a900473ffffffffffffffffffffffffffffffffffffffff1673ffffffffffffffffffffffffffffffffffffffff1673ffffffffffffffffffffffffffffffffffffffff1681526020019081526020016000206102eb600160008460010160009054906101000a900473ffffffffffffffffffffffffffffffffffffffff1673ffffffffffffffffffffffffffffffffffffffff1673ffffffffffffffffffffffffffffffffffffffff16815260200190815260200160002084610dff565b815481106102fc576102fb6112d8565b5b9060005260206000200160009055600260008260020160009054906101000a900473ffffffffffffffffffffffffffffffffffffffff1673ffffffffffffffffffffffffffffffffffffffff1673ffffffffffffffffffffffffffffffffffffffff1681526020019081526020016000206103d9600260008460020160009054906101000a900473ffffffffffffffffffffffffffffffffffffffff1673ffffffffffffffffffffffffffffffffffffffff1673ffffffffffffffffffffffffffffffffffffffff16815260200190815260200160002084610dff565b815481106103ea576103e96112d8565b5b90600052602060002001600090553373ffffffffffffffffffffffffffffffffffffffff168160020160009054906101000a900473ffffffffffffffffffffffffffffffffffffffff1673ffffffffffffffffffffffffffffffffffffffff16146104b0578060020160009054906101000a900473ffffffffffffffffffffffffffffffffffffffff166040517f02a6c0520000000000000000000000000000000000000000000000000000000081526004016104a79190611366565b60405180910390fd5b60008160020160009054906101000a900473ffffffffffffffffffffffffffffffffffffffff1673ffffffffffffffffffffffffffffffffffffffff1682600301546040516104fe906113b2565b60006040518083038185875af1925050503d806000811461053b576040519150601f19603f3d011682016040523d82523d6000602084013e610540565b606091505b505090508061057b576040517f90b8ec1800000000000000000000000000000000000000000000000000000000815260040160405180910390fd5b505050565b600080600083815260200190815260200160002090506000808381526020019081526020016000206000808201600090556001820160006101000a81549073ffffffffffffffffffffffffffffffffffffffff02191690556002820160006101000a81549073ffffffffffffffffffffffffffffffffffffffff021916905560038201600090556004820160006106179190610e62565b5050600160008260010160009054906101000a900473ffffffffffffffffffffffffffffffffffffffff1673ffffffffffffffffffffffffffffffffffffffff1673ffffffffffffffffffffffffffffffffffffffff1681526020019081526020016000206106e8600160008460010160009054906101000a900473ffffffffffffffffffffffffffffffffffffffff1673ffffffffffffffffffffffffffffffffffffffff1673ffffffffffffffffffffffffffffffffffffffff16815260200190815260200160002084610dff565b815481106106f9576106f86112d8565b5b9060005260206000200160009055600260008260020160009054906101000a900473ffffffffffffffffffffffffffffffffffffffff1673ffffffffffffffffffffffffffffffffffffffff1673ffffffffffffffffffffffffffffffffffffffff1681526020019081526020016000206107d6600260008460020160009054906101000a900473ffffffffffffffffffffffffffffffffffffffff1673ffffffffffffffffffffffffffffffffffffffff1673ffffffffffffffffffffffffffffffffffffffff16815260200190815260200160002084610dff565b815481106107e7576107e66112d8565b5b90600052602060002001600090553373ffffffffffffffffffffffffffffffffffffffff168160010160009054906101000a900473ffffffffffffffffffffffffffffffffffffffff1673ffffffffffffffffffffffffffffffffffffffff16146108ad578060010160009054906101000a900473ffffffffffffffffffffffffffffffffffffffff166040517f689289b70000000000000000000000000000000000000000000000000000000081526004016108a49190611366565b60405180910390fd5b60008160010160009054906101000a900473ffffffffffffffffffffffffffffffffffffffff1673ffffffffffffffffffffffffffffffffffffffff1682600301546040516108fb906113b2565b60006040518083038185875af1925050503d8060008114610938576040519150601f19603f3d011682016040523d82523d6000602084013e61093d565b606091505b5050905080610978576040517f90b8ec1800000000000000000000000000000000000000000000000000000000815260040160405180910390fd5b505050565b6001602052816000526040600020818154811061099957600080fd5b90600052602060002001600091509150505481565b60006020528060005260406000206000915090508060000154908060010160009054906101000a900473ffffffffffffffffffffffffffffffffffffffff16908060020160009054906101000a900473ffffffffffffffffffffffffffffffffffffffff1690806003015490806004018054610a29906113f6565b80601f0160208091040260200160405190810160405280929190818152602001828054610a55906113f6565b8015610aa25780601f10610a7757610100808354040283529160200191610aa2565b820191906000526020600020905b815481529060010190602001808311610a8557829003601f168201915b5050505050905085565b60026020528160005260406000208181548110610ac857600080fd5b90600052602060002001600091509150505481565b3373ffffffffffffffffffffffffffffffffffffffff168373ffffffffffffffffffffffffffffffffffffffff161480610b435750600073ffffffffffffffffffffffffffffffffffffffff168373ffffffffffffffffffffffffffffffffffffffff16145b15610b8557826040517f17858bbe000000000000000000000000000000000000000000000000000000008152600401610b7c9190611366565b60405180910390fd5b60006040518060a001604052808681526020013373ffffffffffffffffffffffffffffffffffffffff1681526020018573ffffffffffffffffffffffffffffffffffffffff16815260200134815260200184848080601f016020809104026020016040519081016040528093929190818152602001838380828437600081840152601f19601f8201169050808301925050505050505081525090507f36980fd41daf9f4c1e45540acc32d5a265b0808d098280280b1876490f27a26781604051610c4f9190611514565b60405180910390a1806000808781526020019081526020016000206000820151816000015560208201518160010160006101000a81548173ffffffffffffffffffffffffffffffffffffffff021916908373ffffffffffffffffffffffffffffffffffffffff16021790555060408201518160020160006101000a81548173ffffffffffffffffffffffffffffffffffffffff021916908373ffffffffffffffffffffffffffffffffffffffff160217905550606082015181600301556080820151816004019080519060200190610d28929190610ea2565b50905050600160003373ffffffffffffffffffffffffffffffffffffffff1673ffffffffffffffffffffffffffffffffffffffff168152602001908152602001600020859080600181540180825580915050600190039060005260206000200160009091909190915055600260008573ffffffffffffffffffffffffffffffffffffffff1673ffffffffffffffffffffffffffffffffffffffff1681526020019081526020016000208590806001815401808255809150506001900390600052602060002001600090919091909150555050505050565b600080600090505b8380549050811015610e535782848281548110610e2757610e266112d8565b5b906000526020600020015403610e405780915050610e5c565b8080610e4b90611565565b915050610e07565b50828054905090505b92915050565b508054610e6e906113f6565b6000825580601f10610e805750610e9f565b601f016020900490600052602060002090810190610e9e9190610f28565b5b50565b828054610eae906113f6565b90600052602060002090601f016020900481019282610ed05760008555610f17565b82601f10610ee957805160ff1916838001178555610f17565b82800160010185558215610f17579182015b82811115610f16578251825591602001919060010190610efb565b5b509050610f249190610f28565b5090565b5b80821115610f41576000816000905550600101610f29565b5090565b600080fd5b600080fd5b6000819050919050565b610f6281610f4f565b8114610f6d57600080fd5b50565b600081359050610f7f81610f59565b92915050565b600060208284031215610f9b57610f9a610f45565b5b6000610fa984828501610f70565b91505092915050565b600073ffffffffffffffffffffffffffffffffffffffff82169050919050565b6000610fdd82610fb2565b9050919050565b610fed81610fd2565b8114610ff857600080fd5b50565b60008135905061100a81610fe4565b92915050565b6000819050919050565b61102381611010565b811461102e57600080fd5b50565b6000813590506110408161101a565b92915050565b6000806040838503121561105d5761105c610f45565b5b600061106b85828601610ffb565b925050602061107c85828601611031565b9150509250929050565b61108f81610f4f565b82525050565b60006020820190506110aa6000830184611086565b92915050565b60006110bb82610fb2565b9050919050565b6110cb816110b0565b82525050565b6110da81611010565b82525050565b600081519050919050565b600082825260208201905092915050565b60005b8381101561111a5780820151818401526020810190506110ff565b83811115611129576000848401525b50505050565b6000601f19601f8301169050919050565b600061114b826110e0565b61115581856110eb565b93506111658185602086016110fc565b61116e8161112f565b840191505092915050565b600060a08201905061118e6000830188611086565b61119b60208301876110c2565b6111a860408301866110c2565b6111b560608301856110d1565b81810360808301526111c78184611140565b90509695505050505050565b6111dc816110b0565b81146111e757600080fd5b50565b6000813590506111f9816111d3565b92915050565b600080fd5b600080fd5b600080fd5b60008083601f840112611224576112236111ff565b5b8235905067ffffffffffffffff81111561124157611240611204565b5b60208301915083600182028301111561125d5761125c611209565b5b9250929050565b6000806000806060858703121561127e5761127d610f45565b5b600061128c87828801610f70565b945050602061129d878288016111ea565b935050604085013567ffffffffffffffff8111156112be576112bd610f4a565b5b6112ca8782880161120e565b925092505092959194509250565b7f4e487b7100000000000000000000000000000000000000000000000000000000600052603260045260246000fd5b6000819050919050565b600061132c61132761132284610fb2565b611307565b610fb2565b9050919050565b600061133e82611311565b9050919050565b600061135082611333565b9050919050565b61136081611345565b82525050565b600060208201905061137b6000830184611357565b92915050565b600081905092915050565b50565b600061139c600083611381565b91506113a78261138c565b600082019050919050565b60006113bd8261138f565b9150819050919050565b7f4e487b7100000000000000000000000000000000000000000000000000000000600052602260045260246000fd5b6000600282049050600182168061140e57607f821691505b602082108103611421576114206113c7565b5b50919050565b61143081610f4f565b82525050565b61143f816110b0565b82525050565b61144e81611010565b82525050565b600082825260208201905092915050565b6000611470826110e0565b61147a8185611454565b935061148a8185602086016110fc565b6114938161112f565b840191505092915050565b600060a0830160008301516114b66000860182611427565b5060208301516114c96020860182611436565b5060408301516114dc6040860182611436565b5060608301516114ef6060860182611445565b50608083015184820360808601526115078282611465565b9150508091505092915050565b6000602082019050818103600083015261152e818461149e565b905092915050565b7f4e487b7100000000000000000000000000000000000000000000000000000000600052601160045260246000fd5b600061157082611010565b91507fffffffffffffffffffffffffffffffffffffffffffffffffffffffffffffffff82036115a2576115a1611536565b5b60018201905091905056fea2646970667358221220846c112ed4aa8af57393b093032dbbe5ab6abdcf0302f79804013cde6f51dc2d64736f6c634300080d0033",
    "linkReferences": {},
    "deployedLinkReferences": {}
}