{
    "_format": "hh-sol-artifact-1",
    "contractName": "Cards",
    "sourceName": "contracts/Cards.sol",
    "abi": [
        {
            "inputs": [
                {
                    "internalType": "address",
                    "name": "beneficiary",
                    "type": "address"
                }
            ],
            "name": "InvalidBeneficiary",
            "type": "error"
        },
        {
            "inputs": [
                {
                    "internalType": "address",
                    "name": "beneficiary",
                    "type": "address"
                }
            ],
            "name": "NotTheBeneficiary",
            "type": "error"
        },
        {
            "inputs": [
                {
                    "internalType": "address",
                    "name": "creator",
                    "type": "address"
                }
            ],
            "name": "NotTheCreator",
            "type": "error"
        },
        {
            "inputs": [],
            "name": "OngoingTransaction",
            "type": "error"
        },
        {
            "inputs": [],
            "name": "TransferFailed",
            "type": "error"
        },
        {
            "anonymous": false,
            "inputs": [
                {
                    "components": [
                        {
                            "internalType": "bytes32",
                            "name": "number",
                            "type": "bytes32"
                        },
                        {
                            "internalType": "bool",
                            "name": "locked",
                            "type": "bool"
                        },
                        {
                            "internalType": "address payable",
                            "name": "creator",
                            "type": "address"
                        },
                        {
                            "internalType": "address payable",
                            "name": "beneficiary",
                            "type": "address"
                        },
                        {
                            "internalType": "uint256",
                            "name": "amount",
                            "type": "uint256"
                        },
                        {
                            "internalType": "string",
                            "name": "message",
                            "type": "string"
                        }
                    ],
                    "indexed": false,
                    "internalType": "struct Cards.GiftCard",
                    "name": "card",
                    "type": "tuple"
                }
            ],
            "name": "CreateCard",
            "type": "event"
        },
        {
            "inputs": [
                {
                    "internalType": "bytes32",
                    "name": "number",
                    "type": "bytes32"
                }
            ],
            "name": "cancelCard",
            "outputs": [],
            "stateMutability": "nonpayable",
            "type": "function"
        },
        {
            "inputs": [
                {
                    "internalType": "bytes32",
                    "name": "",
                    "type": "bytes32"
                }
            ],
            "name": "cards",
            "outputs": [
                {
                    "internalType": "bytes32",
                    "name": "number",
                    "type": "bytes32"
                },
                {
                    "internalType": "bool",
                    "name": "locked",
                    "type": "bool"
                },
                {
                    "internalType": "address payable",
                    "name": "creator",
                    "type": "address"
                },
                {
                    "internalType": "address payable",
                    "name": "beneficiary",
                    "type": "address"
                },
                {
                    "internalType": "uint256",
                    "name": "amount",
                    "type": "uint256"
                },
                {
                    "internalType": "string",
                    "name": "message",
                    "type": "string"
                }
            ],
            "stateMutability": "view",
            "type": "function"
        },
        {
            "inputs": [
                {
                    "internalType": "bytes32",
                    "name": "number",
                    "type": "bytes32"
                },
                {
                    "internalType": "address payable",
                    "name": "beneficiary",
                    "type": "address"
                },
                {
                    "internalType": "string",
                    "name": "message",
                    "type": "string"
                }
            ],
            "name": "createCard",
            "outputs": [],
            "stateMutability": "payable",
            "type": "function"
        },
        {
            "inputs": [
                {
                    "internalType": "address",
                    "name": "beneficiary",
                    "type": "address"
                }
            ],
            "name": "getAvailableCards",
            "outputs": [
                {
                    "internalType": "bytes32[]",
                    "name": "",
                    "type": "bytes32[]"
                }
            ],
            "stateMutability": "view",
            "type": "function"
        },
        {
            "inputs": [
                {
                    "internalType": "address",
                    "name": "emitter",
                    "type": "address"
                }
            ],
            "name": "getEmittedCards",
            "outputs": [
                {
                    "internalType": "bytes32[]",
                    "name": "",
                    "type": "bytes32[]"
                }
            ],
            "stateMutability": "view",
            "type": "function"
        },
        {
            "inputs": [
                {
                    "internalType": "bytes32",
                    "name": "number",
                    "type": "bytes32"
                }
            ],
            "name": "redeemCard",
            "outputs": [],
            "stateMutability": "payable",
            "type": "function"
        }
    ],
    "bytecode": "0x608060405234801561001057600080fd5b5061185e806100206000396000f3fe6080604052600436106100555760003560e01c80630962be911461005a57806343755a4e14610076578063707cd60c1461009f578063a67850d6146100e1578063c1a68d491461011e578063d28e8e191461013a575b600080fd5b610074600480360381019061006f919061113e565b610177565b005b34801561008257600080fd5b5061009d6004803603810190610098919061113e565b6105ee565b005b3480156100ab57600080fd5b506100c660048036038101906100c1919061113e565b610a65565b6040516100d896959493929190611288565b60405180910390f35b3480156100ed57600080fd5b506101086004803603810190610103919061132e565b610b76565b6040516101159190611419565b60405180910390f35b610138600480360381019061013391906114cc565b610c0d565b005b34801561014657600080fd5b50610161600480360381019061015c919061132e565b610f21565b60405161016e9190611419565b60405180910390f35b600080600083815260200190815260200160002090508060010160009054906101000a900460ff16156101d6576040517ff746091400000000000000000000000000000000000000000000000000000000815260040160405180910390fd5b60018160010160006101000a81548160ff0219169083151502179055503373ffffffffffffffffffffffffffffffffffffffff168160020160009054906101000a900473ffffffffffffffffffffffffffffffffffffffff1673ffffffffffffffffffffffffffffffffffffffff16146102ab578060020160009054906101000a900473ffffffffffffffffffffffffffffffffffffffff166040517f1304e4390000000000000000000000000000000000000000000000000000000081526004016102a2919061159f565b60405180910390fd5b60008160020160009054906101000a900473ffffffffffffffffffffffffffffffffffffffff1673ffffffffffffffffffffffffffffffffffffffff1682600301546040516102f9906115eb565b60006040518083038185875af1925050503d8060008114610336576040519150601f19603f3d011682016040523d82523d6000602084013e61033b565b606091505b5050905080610376576040517f90b8ec1800000000000000000000000000000000000000000000000000000000815260040160405180910390fd5b600160008360010160019054906101000a900473ffffffffffffffffffffffffffffffffffffffff1673ffffffffffffffffffffffffffffffffffffffff1673ffffffffffffffffffffffffffffffffffffffff168152602001908152602001600020610445600160008560010160019054906101000a900473ffffffffffffffffffffffffffffffffffffffff1673ffffffffffffffffffffffffffffffffffffffff1673ffffffffffffffffffffffffffffffffffffffff16815260200190815260200160002085610fb8565b8154811061045657610455611600565b5b9060005260206000200160009055600260008360020160009054906101000a900473ffffffffffffffffffffffffffffffffffffffff1673ffffffffffffffffffffffffffffffffffffffff1673ffffffffffffffffffffffffffffffffffffffff168152602001908152602001600020610533600260008560020160009054906101000a900473ffffffffffffffffffffffffffffffffffffffff1673ffffffffffffffffffffffffffffffffffffffff1673ffffffffffffffffffffffffffffffffffffffff16815260200190815260200160002085610fb8565b8154811061054457610543611600565b5b90600052602060002001600090556000808481526020019081526020016000206000808201600090556001820160006101000a81549060ff02191690556001820160016101000a81549073ffffffffffffffffffffffffffffffffffffffff02191690556002820160006101000a81549073ffffffffffffffffffffffffffffffffffffffff021916905560038201600090556004820160006105e7919061101b565b5050505050565b600080600083815260200190815260200160002090508060010160009054906101000a900460ff161561064d576040517ff746091400000000000000000000000000000000000000000000000000000000815260040160405180910390fd5b60018160010160006101000a81548160ff0219169083151502179055503373ffffffffffffffffffffffffffffffffffffffff168160010160019054906101000a900473ffffffffffffffffffffffffffffffffffffffff1673ffffffffffffffffffffffffffffffffffffffff1614610722578060010160019054906101000a900473ffffffffffffffffffffffffffffffffffffffff166040517f689289b7000000000000000000000000000000000000000000000000000000008152600401610719919061159f565b60405180910390fd5b60008160010160019054906101000a900473ffffffffffffffffffffffffffffffffffffffff1673ffffffffffffffffffffffffffffffffffffffff168260030154604051610770906115eb565b60006040518083038185875af1925050503d80600081146107ad576040519150601f19603f3d011682016040523d82523d6000602084013e6107b2565b606091505b50509050806107ed576040517f90b8ec1800000000000000000000000000000000000000000000000000000000815260040160405180910390fd5b600160008360010160019054906101000a900473ffffffffffffffffffffffffffffffffffffffff1673ffffffffffffffffffffffffffffffffffffffff1673ffffffffffffffffffffffffffffffffffffffff1681526020019081526020016000206108bc600160008560010160019054906101000a900473ffffffffffffffffffffffffffffffffffffffff1673ffffffffffffffffffffffffffffffffffffffff1673ffffffffffffffffffffffffffffffffffffffff16815260200190815260200160002085610fb8565b815481106108cd576108cc611600565b5b9060005260206000200160009055600260008360020160009054906101000a900473ffffffffffffffffffffffffffffffffffffffff1673ffffffffffffffffffffffffffffffffffffffff1673ffffffffffffffffffffffffffffffffffffffff1681526020019081526020016000206109aa600260008560020160009054906101000a900473ffffffffffffffffffffffffffffffffffffffff1673ffffffffffffffffffffffffffffffffffffffff1673ffffffffffffffffffffffffffffffffffffffff16815260200190815260200160002085610fb8565b815481106109bb576109ba611600565b5b90600052602060002001600090556000808481526020019081526020016000206000808201600090556001820160006101000a81549060ff02191690556001820160016101000a81549073ffffffffffffffffffffffffffffffffffffffff02191690556002820160006101000a81549073ffffffffffffffffffffffffffffffffffffffff02191690556003820160009055600482016000610a5e919061101b565b5050505050565b60006020528060005260406000206000915090508060000154908060010160009054906101000a900460ff16908060010160019054906101000a900473ffffffffffffffffffffffffffffffffffffffff16908060020160009054906101000a900473ffffffffffffffffffffffffffffffffffffffff1690806003015490806004018054610af39061165e565b80601f0160208091040260200160405190810160405280929190818152602001828054610b1f9061165e565b8015610b6c5780601f10610b4157610100808354040283529160200191610b6c565b820191906000526020600020905b815481529060010190602001808311610b4f57829003601f168201915b5050505050905086565b6060600160008373ffffffffffffffffffffffffffffffffffffffff1673ffffffffffffffffffffffffffffffffffffffff168152602001908152602001600020805480602002602001604051908101604052809291908181526020018280548015610c0157602002820191906000526020600020905b815481526020019060010190808311610bed575b50505050509050919050565b600073ffffffffffffffffffffffffffffffffffffffff168373ffffffffffffffffffffffffffffffffffffffff1603610c7e57826040517f1a3b45fd000000000000000000000000000000000000000000000000000000008152600401610c75919061159f565b60405180910390fd5b60006040518060c001604052808681526020016000151581526020013373ffffffffffffffffffffffffffffffffffffffff1681526020018573ffffffffffffffffffffffffffffffffffffffff16815260200134815260200184848080601f016020809104026020016040519081016040528093929190818152602001838380828437600081840152601f19601f8201169050808301925050505050505081525090507f6e496b25273f89b840099dbc136518bff84ed9133a575099f0f0e80ba46a4ef981604051610d51919061178f565b60405180910390a1806000808781526020019081526020016000206000820151816000015560208201518160010160006101000a81548160ff02191690831515021790555060408201518160010160016101000a81548173ffffffffffffffffffffffffffffffffffffffff021916908373ffffffffffffffffffffffffffffffffffffffff16021790555060608201518160020160006101000a81548173ffffffffffffffffffffffffffffffffffffffff021916908373ffffffffffffffffffffffffffffffffffffffff1602179055506080820151816003015560a0820151816004019080519060200190610e4a92919061105b565b50905050600160003373ffffffffffffffffffffffffffffffffffffffff1673ffffffffffffffffffffffffffffffffffffffff168152602001908152602001600020859080600181540180825580915050600190039060005260206000200160009091909190915055600260008573ffffffffffffffffffffffffffffffffffffffff1673ffffffffffffffffffffffffffffffffffffffff1681526020019081526020016000208590806001815401808255809150506001900390600052602060002001600090919091909150555050505050565b6060600260008373ffffffffffffffffffffffffffffffffffffffff1673ffffffffffffffffffffffffffffffffffffffff168152602001908152602001600020805480602002602001604051908101604052809291908181526020018280548015610fac57602002820191906000526020600020905b815481526020019060010190808311610f98575b50505050509050919050565b600080600090505b838054905081101561100c5782848281548110610fe057610fdf611600565b5b906000526020600020015403610ff95780915050611015565b8080611004906117e0565b915050610fc0565b50828054905090505b92915050565b5080546110279061165e565b6000825580601f106110395750611058565b601f01602090049060005260206000209081019061105791906110e1565b5b50565b8280546110679061165e565b90600052602060002090601f01602090048101928261108957600085556110d0565b82601f106110a257805160ff19168380011785556110d0565b828001600101855582156110d0579182015b828111156110cf5782518255916020019190600101906110b4565b5b5090506110dd91906110e1565b5090565b5b808211156110fa5760008160009055506001016110e2565b5090565b600080fd5b600080fd5b6000819050919050565b61111b81611108565b811461112657600080fd5b50565b60008135905061113881611112565b92915050565b600060208284031215611154576111536110fe565b5b600061116284828501611129565b91505092915050565b61117481611108565b82525050565b60008115159050919050565b61118f8161117a565b82525050565b600073ffffffffffffffffffffffffffffffffffffffff82169050919050565b60006111c082611195565b9050919050565b6111d0816111b5565b82525050565b6000819050919050565b6111e9816111d6565b82525050565b600081519050919050565b600082825260208201905092915050565b60005b8381101561122957808201518184015260208101905061120e565b83811115611238576000848401525b50505050565b6000601f19601f8301169050919050565b600061125a826111ef565b61126481856111fa565b935061127481856020860161120b565b61127d8161123e565b840191505092915050565b600060c08201905061129d600083018961116b565b6112aa6020830188611186565b6112b760408301876111c7565b6112c460608301866111c7565b6112d160808301856111e0565b81810360a08301526112e3818461124f565b9050979650505050505050565b60006112fb82611195565b9050919050565b61130b816112f0565b811461131657600080fd5b50565b60008135905061132881611302565b92915050565b600060208284031215611344576113436110fe565b5b600061135284828501611319565b91505092915050565b600081519050919050565b600082825260208201905092915050565b6000819050602082019050919050565b61139081611108565b82525050565b60006113a28383611387565b60208301905092915050565b6000602082019050919050565b60006113c68261135b565b6113d08185611366565b93506113db83611377565b8060005b8381101561140c5781516113f38882611396565b97506113fe836113ae565b9250506001810190506113df565b5085935050505092915050565b6000602082019050818103600083015261143381846113bb565b905092915050565b611444816111b5565b811461144f57600080fd5b50565b6000813590506114618161143b565b92915050565b600080fd5b600080fd5b600080fd5b60008083601f84011261148c5761148b611467565b5b8235905067ffffffffffffffff8111156114a9576114a861146c565b5b6020830191508360018202830111156114c5576114c4611471565b5b9250929050565b600080600080606085870312156114e6576114e56110fe565b5b60006114f487828801611129565b945050602061150587828801611452565b935050604085013567ffffffffffffffff81111561152657611525611103565b5b61153287828801611476565b925092505092959194509250565b6000819050919050565b600061156561156061155b84611195565b611540565b611195565b9050919050565b60006115778261154a565b9050919050565b60006115898261156c565b9050919050565b6115998161157e565b82525050565b60006020820190506115b46000830184611590565b92915050565b600081905092915050565b50565b60006115d56000836115ba565b91506115e0826115c5565b600082019050919050565b60006115f6826115c8565b9150819050919050565b7f4e487b7100000000000000000000000000000000000000000000000000000000600052603260045260246000fd5b7f4e487b7100000000000000000000000000000000000000000000000000000000600052602260045260246000fd5b6000600282049050600182168061167657607f821691505b6020821081036116895761168861162f565b5b50919050565b6116988161117a565b82525050565b6116a7816111b5565b82525050565b6116b6816111d6565b82525050565b600082825260208201905092915050565b60006116d8826111ef565b6116e281856116bc565b93506116f281856020860161120b565b6116fb8161123e565b840191505092915050565b600060c08301600083015161171e6000860182611387565b506020830151611731602086018261168f565b506040830151611744604086018261169e565b506060830151611757606086018261169e565b50608083015161176a60808601826116ad565b5060a083015184820360a086015261178282826116cd565b9150508091505092915050565b600060208201905081810360008301526117a98184611706565b905092915050565b7f4e487b7100000000000000000000000000000000000000000000000000000000600052601160045260246000fd5b60006117eb826111d6565b91507fffffffffffffffffffffffffffffffffffffffffffffffffffffffffffffffff820361181d5761181c6117b1565b5b60018201905091905056fea2646970667358221220bf65d20157e08973c6e84f3960e3296e7fee32223468a99377f5764976354b7364736f6c634300080d0033",
    "linkReferences": {},
    "deployedLinkReferences": {}
}